{
  "address": "0x4a5143B13C84DB00E6d8c19b9EA00f3b91416d20",
  "abi": [
    {
      "inputs": [],
      "stateMutability": "nonpayable",
      "type": "constructor"
    },
    {
      "anonymous": false,
      "inputs": [
        {
          "indexed": true,
          "internalType": "address",
          "name": "account",
          "type": "address"
        },
        {
          "indexed": true,
          "internalType": "address",
          "name": "operator",
          "type": "address"
        },
        {
          "indexed": false,
          "internalType": "bool",
          "name": "approved",
          "type": "bool"
        }
      ],
      "name": "ApprovalForAll",
      "type": "event"
    },
    {
      "anonymous": false,
      "inputs": [
        {
          "indexed": true,
          "internalType": "address",
          "name": "operator",
          "type": "address"
        },
        {
          "indexed": true,
          "internalType": "address",
          "name": "from",
          "type": "address"
        },
        {
          "indexed": true,
          "internalType": "address",
          "name": "to",
          "type": "address"
        },
        {
          "indexed": false,
          "internalType": "uint256[]",
          "name": "ids",
          "type": "uint256[]"
        },
        {
          "indexed": false,
          "internalType": "uint256[]",
          "name": "values",
          "type": "uint256[]"
        }
      ],
      "name": "TransferBatch",
      "type": "event"
    },
    {
      "anonymous": false,
      "inputs": [
        {
          "indexed": true,
          "internalType": "address",
          "name": "operator",
          "type": "address"
        },
        {
          "indexed": true,
          "internalType": "address",
          "name": "from",
          "type": "address"
        },
        {
          "indexed": true,
          "internalType": "address",
          "name": "to",
          "type": "address"
        },
        {
          "indexed": false,
          "internalType": "uint256",
          "name": "id",
          "type": "uint256"
        },
        {
          "indexed": false,
          "internalType": "uint256",
          "name": "value",
          "type": "uint256"
        }
      ],
      "name": "TransferSingle",
      "type": "event"
    },
    {
      "anonymous": false,
      "inputs": [
        {
          "indexed": false,
          "internalType": "string",
          "name": "value",
          "type": "string"
        },
        {
          "indexed": true,
          "internalType": "uint256",
          "name": "id",
          "type": "uint256"
        }
      ],
      "name": "URI",
      "type": "event"
    },
    {
      "inputs": [],
      "name": "GOLD_INGOT",
      "outputs": [
        {
          "internalType": "uint256",
          "name": "",
          "type": "uint256"
        }
      ],
      "stateMutability": "view",
      "type": "function"
    },
    {
      "inputs": [],
      "name": "PUG",
      "outputs": [
        {
          "internalType": "uint256",
          "name": "",
          "type": "uint256"
        }
      ],
      "stateMutability": "view",
      "type": "function"
    },
    {
      "inputs": [],
      "name": "SHIBA",
      "outputs": [
        {
          "internalType": "uint256",
          "name": "",
          "type": "uint256"
        }
      ],
      "stateMutability": "view",
      "type": "function"
    },
    {
      "inputs": [],
      "name": "ST_BERNARD",
      "outputs": [
        {
          "internalType": "uint256",
          "name": "",
          "type": "uint256"
        }
      ],
      "stateMutability": "view",
      "type": "function"
    },
    {
      "inputs": [
        {
          "internalType": "address",
          "name": "account",
          "type": "address"
        },
        {
          "internalType": "uint256",
          "name": "id",
          "type": "uint256"
        }
      ],
      "name": "balanceOf",
      "outputs": [
        {
          "internalType": "uint256",
          "name": "",
          "type": "uint256"
        }
      ],
      "stateMutability": "view",
      "type": "function"
    },
    {
      "inputs": [
        {
          "internalType": "address[]",
          "name": "accounts",
          "type": "address[]"
        },
        {
          "internalType": "uint256[]",
          "name": "ids",
          "type": "uint256[]"
        }
      ],
      "name": "balanceOfBatch",
      "outputs": [
        {
          "internalType": "uint256[]",
          "name": "",
          "type": "uint256[]"
        }
      ],
      "stateMutability": "view",
      "type": "function"
    },
    {
      "inputs": [
        {
          "internalType": "address",
          "name": "account",
          "type": "address"
        },
        {
          "internalType": "address",
          "name": "operator",
          "type": "address"
        }
      ],
      "name": "isApprovedForAll",
      "outputs": [
        {
          "internalType": "bool",
          "name": "",
          "type": "bool"
        }
      ],
      "stateMutability": "view",
      "type": "function"
    },
    {
      "inputs": [],
      "name": "name",
      "outputs": [
        {
          "internalType": "string",
          "name": "",
          "type": "string"
        }
      ],
      "stateMutability": "view",
      "type": "function"
    },
    {
      "inputs": [],
      "name": "randomResult",
      "outputs": [
        {
          "internalType": "uint256",
          "name": "",
          "type": "uint256"
        }
      ],
      "stateMutability": "view",
      "type": "function"
    },
    {
      "inputs": [
        {
          "internalType": "address",
          "name": "from",
          "type": "address"
        },
        {
          "internalType": "address",
          "name": "to",
          "type": "address"
        },
        {
          "internalType": "uint256[]",
          "name": "ids",
          "type": "uint256[]"
        },
        {
          "internalType": "uint256[]",
          "name": "amounts",
          "type": "uint256[]"
        },
        {
          "internalType": "bytes",
          "name": "data",
          "type": "bytes"
        }
      ],
      "name": "safeBatchTransferFrom",
      "outputs": [],
      "stateMutability": "nonpayable",
      "type": "function"
    },
    {
      "inputs": [
        {
          "internalType": "address",
          "name": "from",
          "type": "address"
        },
        {
          "internalType": "address",
          "name": "to",
          "type": "address"
        },
        {
          "internalType": "uint256",
          "name": "id",
          "type": "uint256"
        },
        {
          "internalType": "uint256",
          "name": "amount",
          "type": "uint256"
        },
        {
          "internalType": "bytes",
          "name": "data",
          "type": "bytes"
        }
      ],
      "name": "safeTransferFrom",
      "outputs": [],
      "stateMutability": "nonpayable",
      "type": "function"
    },
    {
      "inputs": [
        {
          "internalType": "address",
          "name": "operator",
          "type": "address"
        },
        {
          "internalType": "bool",
          "name": "approved",
          "type": "bool"
        }
      ],
      "name": "setApprovalForAll",
      "outputs": [],
      "stateMutability": "nonpayable",
      "type": "function"
    },
    {
      "inputs": [
        {
          "internalType": "bytes4",
          "name": "interfaceId",
          "type": "bytes4"
        }
      ],
      "name": "supportsInterface",
      "outputs": [
        {
          "internalType": "bool",
          "name": "",
          "type": "bool"
        }
      ],
      "stateMutability": "view",
      "type": "function"
    },
    {
      "inputs": [
        {
          "internalType": "uint256",
          "name": "",
          "type": "uint256"
        }
      ],
      "name": "uri",
      "outputs": [
        {
          "internalType": "string",
          "name": "",
          "type": "string"
        }
      ],
      "stateMutability": "view",
      "type": "function"
    }
  ],
  "transactionHash": "0xa71f45ea64ae6609512d1a8bca66e58a58c134fe34dc068e8e7312bb9f69cd1a",
  "args": [],
  "solcInputHash": "37ea2623226bb5e997121988161b352b",
  "bytecode": "0x60c0604052601360808190527f4e46542047616d6520436f6c6c656374696f6e0000000000000000000000000060a09081526200004091600491906200062e565b503480156200004e57600080fd5b506040518060a001604052806068815260200162001ed3606891396200007b6301ffc9a760e01b62000147565b6200008681620001cc565b62000098636cdb3d1360e11b62000147565b620000aa6303a24d0760e21b62000147565b50620000d0306000600160405180602001604052806000815250620001e560201b60201c565b620000f43060018060405180602001604052806000815250620001e560201b60201c565b62000119306002600160405180602001604052806000815250620001e560201b60201c565b620001413060036301406f4060405180602001604052806000815250620001e560201b60201c565b62000780565b6001600160e01b03198082161415620001a7576040805162461bcd60e51b815260206004820152601c60248201527f4552433136353a20696e76616c696420696e7465726661636520696400000000604482015290519081900360640190fd5b6001600160e01b0319166000908152602081905260409020805460ff19166001179055565b8051620001e19060039060208401906200062e565b5050565b6001600160a01b0384166200022c5760405162461bcd60e51b815260040180806020018281038252602181526020018062001f3b6021913960400191505060405180910390fd5b60006200023862000314565b90506200025f816000876200024d8862000319565b620002588862000319565b876200035e565b60008481526001602090815260408083206001600160a01b03891684528252909120546200029891859062000f2462000366821b17901c565b60008581526001602090815260408083206001600160a01b03808b16808652918452828520959095558151898152928301889052815190948616927fc3d58168c5ae7397731d063d5bbf3d657854427343f4c083240f7aacaa2d0f6292908290030190a46200030d81600087878787620003c8565b5050505050565b335b90565b6040805160018082528183019092526060918291906020808301908036833701905050905082816000815181106200034d57fe5b602090810291909101015292915050565b505050505050565b600082820183811015620003c1576040805162461bcd60e51b815260206004820152601b60248201527f536166654d6174683a206164646974696f6e206f766572666c6f770000000000604482015290519081900360640190fd5b9392505050565b620003e7846001600160a01b03166200062860201b62000f851760201c565b156200035e57836001600160a01b031663f23a6e6187878686866040518663ffffffff1660e01b815260040180866001600160a01b03168152602001856001600160a01b0316815260200184815260200183815260200180602001828103825283818151815260200191508051906020019080838360005b83811015620004795781810151838201526020016200045f565b50505050905090810190601f168015620004a75780820380516001836020036101000a031916815260200191505b509650505050505050602060405180830381600087803b158015620004cb57600080fd5b505af1925050508015620004f257506040513d6020811015620004ed57600080fd5b505160015b620005ce5762000501620006d0565b806200050e575062000596565b8060405162461bcd60e51b81526004018080602001828103825283818151815260200191508051906020019080838360005b838110156200055a57818101518382015260200162000540565b50505050905090810190601f168015620005885780820380516001836020036101000a031916815260200191505b509250505060405180910390fd5b60405162461bcd60e51b815260040180806020018281038252603481526020018062001e776034913960400191505060405180910390fd5b6001600160e01b0319811663f23a6e6160e01b146200061f5760405162461bcd60e51b815260040180806020018281038252602881526020018062001eab6028913960400191505060405180910390fd5b50505050505050565b3b151590565b828054600181600116156101000203166002900490600052602060002090601f016020900481019282601f106200067157805160ff1916838001178555620006a1565b82800160010185558215620006a1579182015b82811115620006a157825182559160200191906001019062000684565b50620006af929150620006b3565b5090565b5b80821115620006af5760008155600101620006b4565b60e01c90565b600060443d1015620006e25762000316565b600481823e6308c379a0620006f88251620006ca565b14620007045762000316565b6040513d600319016004823e80513d6001600160401b03808311602484018310171562000735575050505062000316565b8284019250825191508082111562000751575050505062000316565b503d830160208284010111156200076b5750505062000316565b601f01601f1916810160200160405291505090565b6116e780620007906000396000f3fe608060405234801561001057600080fd5b50600436106100e95760003560e01c80637a4f8a611161008c578063d3a3fcef11610066578063d3a3fcef1461057d578063e985e9c514610585578063eb415485146105b3578063f242432a146105bb576100e9565b80637a4f8a611461053f578063a22cb46514610547578063c755b11b14610575576100e9565b80630e89341c116100c85780630e89341c146101e45780632eb2c2d61461020157806342619f66146103c45780634e1273f4146103cc576100e9565b8062fdd58e146100ee57806301ffc9a71461012c57806306fdde0314610167575b600080fd5b61011a6004803603604081101561010457600080fd5b506001600160a01b038135169060200135610684565b60408051918252519081900360200190f35b6101536004803603602081101561014257600080fd5b50356001600160e01b0319166106f3565b604080519115158252519081900360200190f35b61016f610712565b6040805160208082528351818301528351919283929083019185019080838360005b838110156101a9578181015183820152602001610191565b50505050905090810190601f1680156101d65780820380516001836020036101000a031916815260200191505b509250505060405180910390f35b61016f600480360360208110156101fa57600080fd5b50356107a0565b6103c2600480360360a081101561021757600080fd5b6001600160a01b038235811692602081013590911691810190606081016040820135600160201b81111561024a57600080fd5b82018360208201111561025c57600080fd5b803590602001918460208302840111600160201b8311171561027d57600080fd5b9190808060200260200160405190810160405280939291908181526020018383602002808284376000920191909152509295949360208101935035915050600160201b8111156102cc57600080fd5b8201836020820111156102de57600080fd5b803590602001918460208302840111600160201b831117156102ff57600080fd5b9190808060200260200160405190810160405280939291908181526020018383602002808284376000920191909152509295949360208101935035915050600160201b81111561034e57600080fd5b82018360208201111561036057600080fd5b803590602001918460018302840111600160201b8311171561038157600080fd5b91908080601f016020809104026020016040519081016040528093929190818152602001838380828437600092019190915250929550610838945050505050565b005b61011a610b36565b6104ef600480360360408110156103e257600080fd5b810190602081018135600160201b8111156103fc57600080fd5b82018360208201111561040e57600080fd5b803590602001918460208302840111600160201b8311171561042f57600080fd5b9190808060200260200160405190810160405280939291908181526020018383602002808284376000920191909152509295949360208101935035915050600160201b81111561047e57600080fd5b82018360208201111561049057600080fd5b803590602001918460208302840111600160201b831117156104b157600080fd5b919080806020026020016040519081016040528093929190818152602001838360200280828437600092019190915250929550610b3c945050505050565b60408051602080825283518183015283519192839290830191858101910280838360005b8381101561052b578181015183820152602001610513565b505050509050019250505060405180910390f35b61011a610c28565b6103c26004803603604081101561055d57600080fd5b506001600160a01b0381351690602001351515610c2d565b61011a610d1c565b61011a610d21565b6101536004803603604081101561059b57600080fd5b506001600160a01b0381358116916020013516610d26565b61011a610d54565b6103c2600480360360a08110156105d157600080fd5b6001600160a01b03823581169260208101359091169160408201359160608101359181019060a081016080820135600160201b81111561061057600080fd5b82018360208201111561062257600080fd5b803590602001918460018302840111600160201b8311171561064357600080fd5b91908080601f016020809104026020016040519081016040528093929190818152602001838380828437600092019190915250929550610d59945050505050565b60006001600160a01b0383166106cb5760405162461bcd60e51b815260040180806020018281038252602b815260200180611563602b913960400191505060405180910390fd5b5060009081526001602090815260408083206001600160a01b03949094168352929052205490565b6001600160e01b03191660009081526020819052604090205460ff1690565b6004805460408051602060026001851615610100026000190190941693909304601f810184900484028201840190925281815292918301828280156107985780601f1061076d57610100808354040283529160200191610798565b820191906000526020600020905b81548152906001019060200180831161077b57829003601f168201915b505050505081565b60038054604080516020601f600260001961010060018816150201909516949094049384018190048102820181019092528281526060939092909183018282801561082c5780601f106108015761010080835404028352916020019161082c565b820191906000526020600020905b81548152906001019060200180831161080f57829003601f168201915b50505050509050919050565b81518351146108785760405162461bcd60e51b815260040180806020018281038252602881526020018061168a6028913960400191505060405180910390fd5b6001600160a01b0384166108bd5760405162461bcd60e51b81526004018080602001828103825260258152602001806115b76025913960400191505060405180910390fd5b6108c5610f8b565b6001600160a01b0316856001600160a01b031614806108f057506108f0856108eb610f8b565b610d26565b61092b5760405162461bcd60e51b81526004018080602001828103825260328152602001806115dc6032913960400191505060405180910390fd5b6000610935610f8b565b9050610945818787878787610b2e565b60005b8451811015610a4657600085828151811061095f57fe5b60200260200101519050600085838151811061097757fe5b602002602001015190506109e4816040518060600160405280602a815260200161160e602a91396001600086815260200190815260200160002060008d6001600160a01b03166001600160a01b0316815260200190815260200160002054610f909092919063ffffffff16565b60008381526001602090815260408083206001600160a01b038e811685529252808320939093558a1681522054610a1b9082610f24565b60009283526001602081815260408086206001600160a01b038d168752909152909320555001610948565b50846001600160a01b0316866001600160a01b0316826001600160a01b03167f4a39dc06d4c0dbc64b70af90fd698a233a518aa5d07e595d983b8c0526c8f7fb8787604051808060200180602001838103835285818151815260200191508051906020019060200280838360005b83811015610acc578181015183820152602001610ab4565b50505050905001838103825284818151815260200191508051906020019060200280838360005b83811015610b0b578181015183820152602001610af3565b5050505090500194505050505060405180910390a4610b2e818787878787611027565b505050505050565b60055481565b60608151835114610b7e5760405162461bcd60e51b81526004018080602001828103825260298152602001806116616029913960400191505060405180910390fd5b6060835167ffffffffffffffff81118015610b9857600080fd5b50604051908082528060200260200182016040528015610bc2578160200160208202803683370190505b50905060005b8451811015610c2057610c01858281518110610be057fe5b6020026020010151858381518110610bf457fe5b6020026020010151610684565b828281518110610c0d57fe5b6020908102919091010152600101610bc8565b509392505050565b600381565b816001600160a01b0316610c3f610f8b565b6001600160a01b03161415610c855760405162461bcd60e51b81526004018080602001828103825260298152602001806116386029913960400191505060405180910390fd5b8060026000610c92610f8b565b6001600160a01b03908116825260208083019390935260409182016000908120918716808252919093529120805460ff191692151592909217909155610cd6610f8b565b6001600160a01b03167f17307eab39ab6107e8899845ad3d59bd9653f200f220920489ca2b5937696c318360405180821515815260200191505060405180910390a35050565b600081565b600281565b6001600160a01b03918216600090815260026020908152604080832093909416825291909152205460ff1690565b600181565b6001600160a01b038416610d9e5760405162461bcd60e51b81526004018080602001828103825260258152602001806115b76025913960400191505060405180910390fd5b610da6610f8b565b6001600160a01b0316856001600160a01b03161480610dcc5750610dcc856108eb610f8b565b610e075760405162461bcd60e51b815260040180806020018281038252602981526020018061158e6029913960400191505060405180910390fd5b6000610e11610f8b565b9050610e31818787610e22886112a6565b610e2b886112a6565b87610b2e565b610e78836040518060600160405280602a815260200161160e602a913960008781526001602090815260408083206001600160a01b038d1684529091529020549190610f90565b60008581526001602090815260408083206001600160a01b038b81168552925280832093909355871681522054610eaf9084610f24565b60008581526001602090815260408083206001600160a01b03808b168086529184529382902094909455805188815291820187905280518a8416938616927fc3d58168c5ae7397731d063d5bbf3d657854427343f4c083240f7aacaa2d0f6292908290030190a4610b2e8187878787876112ea565b600082820183811015610f7e576040805162461bcd60e51b815260206004820152601b60248201527f536166654d6174683a206164646974696f6e206f766572666c6f770000000000604482015290519081900360640190fd5b9392505050565b3b151590565b335b90565b6000818484111561101f5760405162461bcd60e51b81526004018080602001828103825283818151815260200191508051906020019080838360005b83811015610fe4578181015183820152602001610fcc565b50505050905090810190601f1680156110115780820380516001836020036101000a031916815260200191505b509250505060405180910390fd5b505050900390565b611039846001600160a01b0316610f85565b15610b2e57836001600160a01b031663bc197c8187878686866040518663ffffffff1660e01b815260040180866001600160a01b03168152602001856001600160a01b03168152602001806020018060200180602001848103845287818151815260200191508051906020019060200280838360005b838110156110c75781810151838201526020016110af565b50505050905001848103835286818151815260200191508051906020019060200280838360005b838110156111065781810151838201526020016110ee565b50505050905001848103825285818151815260200191508051906020019080838360005b8381101561114257818101518382015260200161112a565b50505050905090810190601f16801561116f5780820380516001836020036101000a031916815260200191505b5098505050505050505050602060405180830381600087803b15801561119457600080fd5b505af19250505080156111b957506040513d60208110156111b457600080fd5b505160015b61124e576111c5611461565b806111d05750611217565b60405162461bcd60e51b8152602060048201818152835160248401528351849391928392604401919085019080838360008315610fe4578181015183820152602001610fcc565b60405162461bcd60e51b81526004018080602001828103825260348152602001806115076034913960400191505060405180910390fd5b6001600160e01b0319811663bc197c8160e01b1461129d5760405162461bcd60e51b815260040180806020018281038252602881526020018061153b6028913960400191505060405180910390fd5b50505050505050565b6040805160018082528183019092526060918291906020808301908036833701905050905082816000815181106112d957fe5b602090810291909101015292915050565b6112fc846001600160a01b0316610f85565b15610b2e57836001600160a01b031663f23a6e6187878686866040518663ffffffff1660e01b815260040180866001600160a01b03168152602001856001600160a01b0316815260200184815260200183815260200180602001828103825283818151815260200191508051906020019080838360005b8381101561138b578181015183820152602001611373565b50505050905090810190601f1680156113b85780820380516001836020036101000a031916815260200191505b509650505050505050602060405180830381600087803b1580156113db57600080fd5b505af192505050801561140057506040513d60208110156113fb57600080fd5b505160015b61140c576111c5611461565b6001600160e01b0319811663f23a6e6160e01b1461129d5760405162461bcd60e51b815260040180806020018281038252602881526020018061153b6028913960400191505060405180910390fd5b60e01c90565b600060443d101561147157610f8d565b600481823e6308c379a0611485825161145b565b1461148f57610f8d565b6040513d600319016004823e80513d67ffffffffffffffff81602484011181841117156114bf5750505050610f8d565b828401925082519150808211156114d95750505050610f8d565b503d830160208284010111156114f157505050610f8d565b601f01601f191681016020016040529150509056fe455243313135353a207472616e7366657220746f206e6f6e2045524331313535526563656976657220696d706c656d656e746572455243313135353a204552433131353552656365697665722072656a656374656420746f6b656e73455243313135353a2062616c616e636520717565727920666f7220746865207a65726f2061646472657373455243313135353a2063616c6c6572206973206e6f74206f776e6572206e6f7220617070726f766564455243313135353a207472616e7366657220746f20746865207a65726f2061646472657373455243313135353a207472616e736665722063616c6c6572206973206e6f74206f776e6572206e6f7220617070726f766564455243313135353a20696e73756666696369656e742062616c616e636520666f72207472616e73666572455243313135353a2073657474696e6720617070726f76616c2073746174757320666f722073656c66455243313135353a206163636f756e747320616e6420696473206c656e677468206d69736d61746368455243313135353a2069647320616e6420616d6f756e7473206c656e677468206d69736d61746368a2646970667358221220a34b1117f5b24fd84306e5ac8d2935dddf11ccd9dd979f85938673a93cbfbb9064736f6c634300060c0033455243313135353a207472616e7366657220746f206e6f6e2045524331313535526563656976657220696d706c656d656e746572455243313135353a204552433131353552656365697665722072656a656374656420746f6b656e7368747470733a2f2f62616679626569626a76686835766635637068327578656b616f657536797a6a717a6464707a6233636162706d62687378737365693379626d37612e697066732e6e667473746f726167652e6c696e6b2f746f6b656e5f7b69647d2e6a736f6e455243313135353a206d696e7420746f20746865207a65726f2061646472657373",
  "devdoc": {
    "kind": "dev",
    "methods": {
      "balanceOf(address,uint256)": {
        "details": "See {IERC1155-balanceOf}. Requirements: - `account` cannot be the zero address."
      },
      "balanceOfBatch(address[],uint256[])": {
        "details": "See {IERC1155-balanceOfBatch}. Requirements: - `accounts` and `ids` must have the same length."
      },
      "isApprovedForAll(address,address)": {
        "details": "See {IERC1155-isApprovedForAll}."
      },
      "safeBatchTransferFrom(address,address,uint256[],uint256[],bytes)": {
        "details": "See {IERC1155-safeBatchTransferFrom}."
      },
      "safeTransferFrom(address,address,uint256,uint256,bytes)": {
        "details": "See {IERC1155-safeTransferFrom}."
      },
      "setApprovalForAll(address,bool)": {
        "details": "See {IERC1155-setApprovalForAll}."
      },
      "supportsInterface(bytes4)": {
        "details": "See {IERC165-supportsInterface}. Time complexity O(1), guaranteed to always use less than 30 000 gas."
      },
      "uri(uint256)": {
        "details": "See {IERC1155MetadataURI-uri}. This implementation returns the same URI for *all* token types. It relies on the token type ID substitution mechanism https://eips.ethereum.org/EIPS/eip-1155#metadata[defined in the EIP]. Clients calling this function must replace the `\\{id\\}` substring with the actual token type ID."
      }
    },
    "version": 1
  },
  "userdoc": {
    "kind": "user",
    "methods": {},
    "version": 1
  },
  "storageLayout": {
    "storage": [
      {
        "astId": 13,
        "contract": "contracts/NFT_GAME_RESOURCES.sol:NFT_GAME_RESOURCES",
        "label": "_supportedInterfaces",
        "offset": 0,
        "slot": "0",
        "type": "t_mapping(t_bytes4,t_bool)"
      },
      {
        "astId": 453,
        "contract": "contracts/NFT_GAME_RESOURCES.sol:NFT_GAME_RESOURCES",
        "label": "_balances",
        "offset": 0,
        "slot": "1",
        "type": "t_mapping(t_uint256,t_mapping(t_address,t_uint256))"
      },
      {
        "astId": 459,
        "contract": "contracts/NFT_GAME_RESOURCES.sol:NFT_GAME_RESOURCES",
        "label": "_operatorApprovals",
        "offset": 0,
        "slot": "2",
        "type": "t_mapping(t_address,t_mapping(t_address,t_bool))"
      },
      {
        "astId": 461,
        "contract": "contracts/NFT_GAME_RESOURCES.sol:NFT_GAME_RESOURCES",
        "label": "_uri",
        "offset": 0,
        "slot": "3",
        "type": "t_string_storage"
      },
      {
        "astId": 1936,
        "contract": "contracts/NFT_GAME_RESOURCES.sol:NFT_GAME_RESOURCES",
        "label": "name",
        "offset": 0,
        "slot": "4",
        "type": "t_string_storage"
      },
      {
        "astId": 1938,
        "contract": "contracts/NFT_GAME_RESOURCES.sol:NFT_GAME_RESOURCES",
        "label": "randomResult",
        "offset": 0,
        "slot": "5",
        "type": "t_uint256"
      },
      {
        "astId": 1954,
        "contract": "contracts/NFT_GAME_RESOURCES.sol:NFT_GAME_RESOURCES",
        "label": "requestToItem",
        "offset": 0,
        "slot": "6",
        "type": "t_mapping(t_bytes32,t_uint256)"
      },
      {
        "astId": 1958,
        "contract": "contracts/NFT_GAME_RESOURCES.sol:NFT_GAME_RESOURCES",
        "label": "requestToSender",
        "offset": 0,
        "slot": "7",
        "type": "t_mapping(t_bytes32,t_address)"
      },
      {
        "astId": 1962,
        "contract": "contracts/NFT_GAME_RESOURCES.sol:NFT_GAME_RESOURCES",
        "label": "requestToTokenId",
        "offset": 0,
        "slot": "8",
        "type": "t_mapping(t_bytes32,t_uint256)"
      }
    ],
    "types": {
      "t_address": {
        "encoding": "inplace",
        "label": "address",
        "numberOfBytes": "20"
      },
      "t_bool": {
        "encoding": "inplace",
        "label": "bool",
        "numberOfBytes": "1"
      },
      "t_bytes32": {
        "encoding": "inplace",
        "label": "bytes32",
        "numberOfBytes": "32"
      },
      "t_bytes4": {
        "encoding": "inplace",
        "label": "bytes4",
        "numberOfBytes": "4"
      },
      "t_mapping(t_address,t_bool)": {
        "encoding": "mapping",
        "key": "t_address",
        "label": "mapping(address => bool)",
        "numberOfBytes": "32",
        "value": "t_bool"
      },
      "t_mapping(t_address,t_mapping(t_address,t_bool))": {
        "encoding": "mapping",
        "key": "t_address",
        "label": "mapping(address => mapping(address => bool))",
        "numberOfBytes": "32",
        "value": "t_mapping(t_address,t_bool)"
      },
      "t_mapping(t_address,t_uint256)": {
        "encoding": "mapping",
        "key": "t_address",
        "label": "mapping(address => uint256)",
        "numberOfBytes": "32",
        "value": "t_uint256"
      },
      "t_mapping(t_bytes32,t_address)": {
        "encoding": "mapping",
        "key": "t_bytes32",
        "label": "mapping(bytes32 => address)",
        "numberOfBytes": "32",
        "value": "t_address"
      },
      "t_mapping(t_bytes32,t_uint256)": {
        "encoding": "mapping",
        "key": "t_bytes32",
        "label": "mapping(bytes32 => uint256)",
        "numberOfBytes": "32",
        "value": "t_uint256"
      },
      "t_mapping(t_bytes4,t_bool)": {
        "encoding": "mapping",
        "key": "t_bytes4",
        "label": "mapping(bytes4 => bool)",
        "numberOfBytes": "32",
        "value": "t_bool"
      },
      "t_mapping(t_uint256,t_mapping(t_address,t_uint256))": {
        "encoding": "mapping",
        "key": "t_uint256",
        "label": "mapping(uint256 => mapping(address => uint256))",
        "numberOfBytes": "32",
        "value": "t_mapping(t_address,t_uint256)"
      },
      "t_string_storage": {
        "encoding": "bytes",
        "label": "string",
        "numberOfBytes": "32"
      },
      "t_uint256": {
        "encoding": "inplace",
        "label": "uint256",
        "numberOfBytes": "32"
      }
    }
  }
}